{"contracts/RecordStorage.sol":{"RecordStorage":{"abi":[{"anonymous":false,"inputs":[{"indexed":true,"internalType":"string","name":"deviceId","type":"string"},{"indexed":true,"internalType":"uint256","name":"timestamp","type":"uint256"},{"indexed":false,"internalType":"string","name":"entropyHash","type":"string"},{"indexed":false,"internalType":"uint256","name":"blockNumber","type":"uint256"}],"name":"RecordAnchored","type":"event"},{"inputs":[],"name":"getRecordCount","outputs":[{"internalType":"uint256","name":"","type":"uint256"}],"stateMutability":"view","type":"function"},{"inputs":[{"internalType":"uint256","name":"","type":"uint256"}],"name":"recordIds","outputs":[{"internalType":"string","name":"","type":"string"}],"stateMutability":"view","type":"function"},{"inputs":[{"internalType":"string","name":"","type":"string"}],"name":"records","outputs":[{"internalType":"string","name":"deviceId","type":"string"},{"internalType":"uint256","name":"timestamp","type":"uint256"},{"internalType":"string","name":"entropyHash","type":"string"},{"internalType":"uint256","name":"blockNumber","type":"uint256"}],"stateMutability":"view","type":"function"},{"inputs":[{"internalType":"string","name":"deviceId","type":"string"},{"internalType":"uint256","name":"timestamp","type":"uint256"},{"internalType":"string","name":"entropyHash","type":"string"}],"name":"storeRecord","outputs":[],"stateMutability":"nonpayable","type":"function"}],"evm":{"bytecode":{"linkReferences":{},"object":"608060405234801561001057600080fd5b50611177806100206000396000f3fe608060405234801561001057600080fd5b506004361061004c5760003560e01c8063541e771d1461005157806397ddbef914610084578063ca267f28146100b4578063f7bb1f90146100d2575b600080fd5b61006b6004803603810190610066919061080d565b6100ee565b60405161007b94939291906108ee565b60405180910390f35b61009e6004803603810190610099919061096d565b610244565b6040516100ab919061099a565b60405180910390f35b6100bc6102f0565b6040516100c991906109bc565b60405180910390f35b6100ec60048036038101906100e79190610a37565b6102fd565b005b60008180516020810182018051848252602083016020850120818352809550505050505060009150905080600001805461012790610afb565b80601f016020809104026020016040519081016040528092919081815260200182805461015390610afb565b80156101a05780601f10610175576101008083540402835291602001916101a0565b820191906000526020600020905b81548152906001019060200180831161018357829003601f168201915b5050505050908060010154908060020180546101bb90610afb565b80601f01602080910402602001604051908101604052809291908181526020018280546101e790610afb565b80156102345780601f1061020957610100808354040283529160200191610234565b820191906000526020600020905b81548152906001019060200180831161021757829003601f168201915b5050505050908060030154905084565b6001818154811061025457600080fd5b90600052602060002001600091509050805461026f90610afb565b80601f016020809104026020016040519081016040528092919081815260200182805461029b90610afb565b80156102e85780601f106102bd576101008083540402835291602001916102e8565b820191906000526020600020905b8154815290600101906020018083116102cb57829003601f168201915b505050505081565b6000600180549050905090565b6000858561030a8661052b565b60405160200161031c93929190610bd9565b60405160208183030381529060405290506000808260405161033e9190610c0a565b90815260200160405180910390206001015414610390576040517f08c379a000000000000000000000000000000000000000000000000000000000815260040161038790610c6d565b60405180910390fd5b604051806080016040528087878080601f016020809104026020016040519081016040528093929190818152602001838380828437600081840152601f19601f82011690508083019250505050505050815260200185815260200184848080601f016020809104026020016040519081016040528093929190818152602001838380828437600081840152601f19601f820116905080830192505050505050508152602001438152506000826040516104499190610c0a565b9081526020016040518091039020600082015181600001908161046c9190610e39565b5060208201518160010155604082015181600201908161048c9190610e39565b50606082015181600301559050506001819080600181540180825580915050600190039060005260206000200160009091909190915090816104ce9190610e39565b508386866040516104e0929190610f0b565b60405180910390207f8cbf932d037650dfd35c735d1a5ec26fb0bc242cf8496c039a2bca8ab83cf4b185854360405161051b93929190610f51565b60405180910390a3505050505050565b606060008203610572576040518060400160405280600181526020017f300000000000000000000000000000000000000000000000000000000000000081525090506106ae565b600082905060005b600082146105a457808061058d90610fb2565b915050600a8261059d9190611029565b915061057a565b60008167ffffffffffffffff8111156105c0576105bf6106e2565b5b6040519080825280601f01601f1916602001820160405280156105f25781602001600182028036833780820191505090505b50905060008290505b600086146106a657600181610610919061105a565b90506000600a80886106229190611029565b61062c919061108e565b87610637919061105a565b603061064391906110dd565b905060008160f81b90508084848151811061066157610660611112565b5b60200101907effffffffffffffffffffffffffffffffffffffffffffffffffffffffffffff1916908160001a905350600a8861069d9190611029565b975050506105fb565b819450505050505b919050565b6000604051905090565b600080fd5b600080fd5b600080fd5b600080fd5b6000601f19601f8301169050919050565b7f4e487b7100000000000000000000000000000000000000000000000000000000600052604160045260246000fd5b61071a826106d1565b810181811067ffffffffffffffff82111715610739576107386106e2565b5b80604052505050565b600061074c6106b3565b90506107588282610711565b919050565b600067ffffffffffffffff821115610778576107776106e2565b5b610781826106d1565b9050602081019050919050565b82818337600083830152505050565b60006107b06107ab8461075d565b610742565b9050828152602081018484840111156107cc576107cb6106cc565b5b6107d784828561078e565b509392505050565b600082601f8301126107f4576107f36106c7565b5b813561080484826020860161079d565b91505092915050565b600060208284031215610823576108226106bd565b5b600082013567ffffffffffffffff811115610841576108406106c2565b5b61084d848285016107df565b91505092915050565b600081519050919050565b600082825260208201905092915050565b60005b83811015610890578082015181840152602081019050610875565b60008484015250505050565b60006108a782610856565b6108b18185610861565b93506108c1818560208601610872565b6108ca816106d1565b840191505092915050565b6000819050919050565b6108e8816108d5565b82525050565b60006080820190508181036000830152610908818761089c565b905061091760208301866108df565b8181036040830152610929818561089c565b905061093860608301846108df565b95945050505050565b61094a816108d5565b811461095557600080fd5b50565b60008135905061096781610941565b92915050565b600060208284031215610983576109826106bd565b5b600061099184828501610958565b91505092915050565b600060208201905081810360008301526109b4818461089c565b905092915050565b60006020820190506109d160008301846108df565b92915050565b600080fd5b600080fd5b60008083601f8401126109f7576109f66106c7565b5b8235905067ffffffffffffffff811115610a1457610a136109d7565b5b602083019150836001820283011115610a3057610a2f6109dc565b5b9250929050565b600080600080600060608688031215610a5357610a526106bd565b5b600086013567ffffffffffffffff811115610a7157610a706106c2565b5b610a7d888289016109e1565b95509550506020610a9088828901610958565b935050604086013567ffffffffffffffff811115610ab157610ab06106c2565b5b610abd888289016109e1565b92509250509295509295909350565b7f4e487b7100000000000000000000000000000000000000000000000000000000600052602260045260246000fd5b60006002820490506001821680610b1357607f821691505b602082108103610b2657610b25610acc565b5b50919050565b600081905092915050565b6000610b438385610b2c565b9350610b5083858461078e565b82840190509392505050565b7f5f00000000000000000000000000000000000000000000000000000000000000600082015250565b6000610b92600183610b2c565b9150610b9d82610b5c565b600182019050919050565b6000610bb382610856565b610bbd8185610b2c565b9350610bcd818560208601610872565b80840191505092915050565b6000610be6828587610b37565b9150610bf182610b85565b9150610bfd8284610ba8565b9150819050949350505050565b6000610c168284610ba8565b915081905092915050565b7f5265636f726420616c726561647920616e63686f726564000000000000000000600082015250565b6000610c57601783610861565b9150610c6282610c21565b602082019050919050565b60006020820190508181036000830152610c8681610c4a565b9050919050565b60008190508160005260206000209050919050565b60006020601f8301049050919050565b600082821b905092915050565b600060088302610cef7fffffffffffffffffffffffffffffffffffffffffffffffffffffffffffffffff82610cb2565b610cf98683610cb2565b95508019841693508086168417925050509392505050565b6000819050919050565b6000610d36610d31610d2c846108d5565b610d11565b6108d5565b9050919050565b6000819050919050565b610d5083610d1b565b610d64610d5c82610d3d565b848454610cbf565b825550505050565b600090565b610d79610d6c565b610d84818484610d47565b505050565b5b81811015610da857610d9d600082610d71565b600181019050610d8a565b5050565b601f821115610ded57610dbe81610c8d565b610dc784610ca2565b81016020851015610dd6578190505b610dea610de285610ca2565b830182610d89565b50505b505050565b600082821c905092915050565b6000610e1060001984600802610df2565b1980831691505092915050565b6000610e298383610dff565b9150826002028217905092915050565b610e4282610856565b67ffffffffffffffff811115610e5b57610e5a6106e2565b5b610e658254610afb565b610e70828285610dac565b600060209050601f831160018114610ea35760008415610e91578287015190505b610e9b8582610e1d565b865550610f03565b601f198416610eb186610c8d565b60005b82811015610ed957848901518255600182019150602085019450602081019050610eb4565b86831015610ef65784890151610ef2601f891682610dff565b8355505b6001600288020188555050505b505050505050565b6000610f18828486610b37565b91508190509392505050565b6000610f308385610861565b9350610f3d83858461078e565b610f46836106d1565b840190509392505050565b60006040820190508181036000830152610f6c818587610f24565b9050610f7b60208301846108df565b949350505050565b7f4e487b7100000000000000000000000000000000000000000000000000000000600052601160045260246000fd5b6000610fbd826108d5565b91507fffffffffffffffffffffffffffffffffffffffffffffffffffffffffffffffff8203610fef57610fee610f83565b5b600182019050919050565b7f4e487b7100000000000000000000000000000000000000000000000000000000600052601260045260246000fd5b6000611034826108d5565b915061103f836108d5565b92508261104f5761104e610ffa565b5b828204905092915050565b6000611065826108d5565b9150611070836108d5565b925082820390508181111561108857611087610f83565b5b92915050565b6000611099826108d5565b91506110a4836108d5565b92508282026110b2816108d5565b915082820484148315176110c9576110c8610f83565b5b5092915050565b600060ff82169050919050565b60006110e8826110d0565b91506110f3836110d0565b9250828201905060ff81111561110c5761110b610f83565b5b92915050565b7f4e487b7100000000000000000000000000000000000000000000000000000000600052603260045260246000fdfea2646970667358221220c6fbc069b7e4052ece2f3511afaea36ef5c08f18b899b6a91f065061c452b4d364736f6c63430008140033","opcodes":"PUSH1 0x80 PUSH1 0x40 MSTORE CALLVALUE DUP1 ISZERO PUSH2 0x10 JUMPI PUSH1 0x0 DUP1 REVERT JUMPDEST POP PUSH2 0x1177 DUP1 PUSH2 0x20 PUSH1 0x0 CODECOPY PUSH1 0x0 RETURN INVALID PUSH1 0x80 PUSH1 0x40 MSTORE CALLVALUE DUP1 ISZERO PUSH2 0x10 JUMPI PUSH1 0x0 DUP1 REVERT JUMPDEST POP PUSH1 0x4 CALLDATASIZE LT PUSH2 0x4C JUMPI PUSH1 0x0 CALLDATALOAD PUSH1 0xE0 SHR DUP1 PUSH4 0x541E771D EQ PUSH2 0x51 JUMPI DUP1 PUSH4 0x97DDBEF9 EQ PUSH2 0x84 JUMPI DUP1 PUSH4 0xCA267F28 EQ PUSH2 0xB4 JUMPI DUP1 PUSH4 0xF7BB1F90 EQ PUSH2 0xD2 JUMPI JUMPDEST PUSH1 0x0 DUP1 REVERT JUMPDEST PUSH2 0x6B PUSH1 0x4 DUP1 CALLDATASIZE SUB DUP2 ADD SWAP1 PUSH2 0x66 SWAP2 SWAP1 PUSH2 0x80D JUMP JUMPDEST PUSH2 0xEE JUMP JUMPDEST PUSH1 0x40 MLOAD PUSH2 0x7B SWAP5 SWAP4 SWAP3 SWAP2 SWAP1 PUSH2 0x8EE JUMP JUMPDEST PUSH1 0x40 MLOAD DUP1 SWAP2 SUB SWAP1 RETURN JUMPDEST PUSH2 0x9E PUSH1 0x4 DUP1 CALLDATASIZE SUB DUP2 ADD SWAP1 PUSH2 0x99 SWAP2 SWAP1 PUSH2 0x96D JUMP JUMPDEST PUSH2 0x244 JUMP JUMPDEST PUSH1 0x40 MLOAD PUSH2 0xAB SWAP2 SWAP1 PUSH2 0x99A JUMP JUMPDEST PUSH1 0x40 MLOAD DUP1 SWAP2 SUB SWAP1 RETURN JUMPDEST PUSH2 0xBC PUSH2 0x2F0 JUMP JUMPDEST PUSH1 0x40 MLOAD PUSH2 0xC9 SWAP2 SWAP1 PUSH2 0x9BC JUMP JUMPDEST PUSH1 0x40 MLOAD DUP1 SWAP2 SUB SWAP1 RETURN JUMPDEST PUSH2 0xEC PUSH1 0x4 DUP1 CALLDATASIZE SUB DUP2 ADD SWAP1 PUSH2 0xE7 SWAP2 SWAP1 PUSH2 0xA37 JUMP JUMPDEST PUSH2 0x2FD JUMP JUMPDEST STOP JUMPDEST PUSH1 0x0 DUP2 DUP1 MLOAD PUSH1 0x20 DUP2 ADD DUP3 ADD DUP1 MLOAD DUP5 DUP3 MSTORE PUSH1 0x20 DUP4 ADD PUSH1 0x20 DUP6 ADD KECCAK256 DUP2 DUP4 MSTORE DUP1 SWAP6 POP POP POP POP POP POP PUSH1 0x0 SWAP2 POP SWAP1 POP DUP1 PUSH1 0x0 ADD DUP1 SLOAD PUSH2 0x127 SWAP1 PUSH2 0xAFB JUMP JUMPDEST DUP1 PUSH1 0x1F ADD PUSH1 0x20 DUP1 SWAP2 DIV MUL PUSH1 0x20 ADD PUSH1 0x40 MLOAD SWAP1 DUP2 ADD PUSH1 0x40 MSTORE DUP1 SWAP3 SWAP2 SWAP1 DUP2 DUP2 MSTORE PUSH1 0x20 ADD DUP3 DUP1 SLOAD PUSH2 0x153 SWAP1 PUSH2 0xAFB JUMP JUMPDEST DUP1 ISZERO PUSH2 0x1A0 JUMPI DUP1 PUSH1 0x1F LT PUSH2 0x175 JUMPI PUSH2 0x100 DUP1 DUP4 SLOAD DIV MUL DUP4 MSTORE SWAP2 PUSH1 0x20 ADD SWAP2 PUSH2 0x1A0 JUMP JUMPDEST DUP3 ADD SWAP2 SWAP1 PUSH1 0x0 MSTORE PUSH1 0x20 PUSH1 0x0 KECCAK256 SWAP1 JUMPDEST DUP2 SLOAD DUP2 MSTORE SWAP1 PUSH1 0x1 ADD SWAP1 PUSH1 0x20 ADD DUP1 DUP4 GT PUSH2 0x183 JUMPI DUP3 SWAP1 SUB PUSH1 0x1F AND DUP3 ADD SWAP2 JUMPDEST POP POP POP POP POP SWAP1 DUP1 PUSH1 0x1 ADD SLOAD SWAP1 DUP1 PUSH1 0x2 ADD DUP1 SLOAD PUSH2 0x1BB SWAP1 PUSH2 0xAFB JUMP JUMPDEST DUP1 PUSH1 0x1F ADD PUSH1 0x20 DUP1 SWAP2 DIV MUL PUSH1 0x20 ADD PUSH1 0x40 MLOAD SWAP1 DUP2 ADD PUSH1 0x40 MSTORE DUP1 SWAP3 SWAP2 SWAP1 DUP2 DUP2 MSTORE PUSH1 0x20 ADD DUP3 DUP1 SLOAD PUSH2 0x1E7 SWAP1 PUSH2 0xAFB JUMP JUMPDEST DUP1 ISZERO PUSH2 0x234 JUMPI DUP1 PUSH1 0x1F LT PUSH2 0x209 JUMPI PUSH2 0x100 DUP1 DUP4 SLOAD DIV MUL DUP4 MSTORE SWAP2 PUSH1 0x20 ADD SWAP2 PUSH2 0x234 JUMP JUMPDEST DUP3 ADD SWAP2 SWAP1 PUSH1 0x0 MSTORE PUSH1 0x20 PUSH1 0x0 KECCAK256 SWAP1 JUMPDEST DUP2 SLOAD DUP2 MSTORE SWAP1 PUSH1 0x1 ADD SWAP1 PUSH1 0x20 ADD DUP1 DUP4 GT PUSH2 0x217 JUMPI DUP3 SWAP1 SUB PUSH1 0x1F AND DUP3 ADD SWAP2 JUMPDEST POP POP POP POP POP SWAP1 DUP1 PUSH1 0x3 ADD SLOAD SWAP1 POP DUP5 JUMP JUMPDEST PUSH1 0x1 DUP2 DUP2 SLOAD DUP2 LT PUSH2 0x254 JUMPI PUSH1 0x0 DUP1 REVERT JUMPDEST SWAP1 PUSH1 0x0 MSTORE PUSH1 0x20 PUSH1 0x0 KECCAK256 ADD PUSH1 0x0 SWAP2 POP SWAP1 POP DUP1 SLOAD PUSH2 0x26F SWAP1 PUSH2 0xAFB JUMP JUMPDEST DUP1 PUSH1 0x1F ADD PUSH1 0x20 DUP1 SWAP2 DIV MUL PUSH1 0x20 ADD PUSH1 0x40 MLOAD SWAP1 DUP2 ADD PUSH1 0x40 MSTORE DUP1 SWAP3 SWAP2 SWAP1 DUP2 DUP2 MSTORE PUSH1 0x20 ADD DUP3 DUP1 SLOAD PUSH2 0x29B SWAP1 PUSH2 0xAFB JUMP JUMPDEST DUP1 ISZERO PUSH2 0x2E8 JUMPI DUP1 PUSH1 0x1F LT PUSH2 0x2BD JUMPI PUSH2 0x100 DUP1 DUP4 SLOAD DIV MUL DUP4 MSTORE SWAP2 PUSH1 0x20 ADD SWAP2 PUSH2 0x2E8 JUMP JUMPDEST DUP3 ADD SWAP2 SWAP1 PUSH1 0x0 MSTORE PUSH1 0x20 PUSH1 0x0 KECCAK256 SWAP1 JUMPDEST DUP2 SLOAD DUP2 MSTORE SWAP1 PUSH1 0x1 ADD SWAP1 PUSH1 0x20 ADD DUP1 DUP4 GT PUSH2 0x2CB JUMPI DUP3 SWAP1 SUB PUSH1 0x1F AND DUP3 ADD SWAP2 JUMPDEST POP POP POP POP POP DUP2 JUMP JUMPDEST PUSH1 0x0 PUSH1 0x1 DUP1 SLOAD SWAP1 POP SWAP1 POP SWAP1 JUMP JUMPDEST PUSH1 0x0 DUP6 DUP6 PUSH2 0x30A DUP7 PUSH2 0x52B JUMP JUMPDEST PUSH1 0x40 MLOAD PUSH1 0x20 ADD PUSH2 0x31C SWAP4 SWAP3 SWAP2 SWAP1 PUSH2 0xBD9 JUMP JUMPDEST PUSH1 0x40 MLOAD PUSH1 0x20 DUP2 DUP4 SUB SUB DUP2 MSTORE SWAP1 PUSH1 0x40 MSTORE SWAP1 POP PUSH1 0x0 DUP1 DUP3 PUSH1 0x40 MLOAD PUSH2 0x33E SWAP2 SWAP1 PUSH2 0xC0A JUMP JUMPDEST SWAP1 DUP2 MSTORE PUSH1 0x20 ADD PUSH1 0x40 MLOAD DUP1 SWAP2 SUB SWAP1 KECCAK256 PUSH1 0x1 ADD SLOAD EQ PUSH2 0x390 JUMPI PUSH1 0x40 MLOAD PUSH32 0x8C379A000000000000000000000000000000000000000000000000000000000 DUP2 MSTORE PUSH1 0x4 ADD PUSH2 0x387 SWAP1 PUSH2 0xC6D JUMP JUMPDEST PUSH1 0x40 MLOAD DUP1 SWAP2 SUB SWAP1 REVERT JUMPDEST PUSH1 0x40 MLOAD DUP1 PUSH1 0x80 ADD PUSH1 0x40 MSTORE DUP1 DUP8 DUP8 DUP1 DUP1 PUSH1 0x1F ADD PUSH1 0x20 DUP1 SWAP2 DIV MUL PUSH1 0x20 ADD PUSH1 0x40 MLOAD SWAP1 DUP2 ADD PUSH1 0x40 MSTORE DUP1 SWAP4 SWAP3 SWAP2 SWAP1 DUP2 DUP2 MSTORE PUSH1 0x20 ADD DUP4 DUP4 DUP1 DUP3 DUP5 CALLDATACOPY PUSH1 0x0 DUP2 DUP5 ADD MSTORE PUSH1 0x1F NOT PUSH1 0x1F DUP3 ADD AND SWAP1 POP DUP1 DUP4 ADD SWAP3 POP POP POP POP POP POP POP DUP2 MSTORE PUSH1 0x20 ADD DUP6 DUP2 MSTORE PUSH1 0x20 ADD DUP5 DUP5 DUP1 DUP1 PUSH1 0x1F ADD PUSH1 0x20 DUP1 SWAP2 DIV MUL PUSH1 0x20 ADD PUSH1 0x40 MLOAD SWAP1 DUP2 ADD PUSH1 0x40 MSTORE DUP1 SWAP4 SWAP3 SWAP2 SWAP1 DUP2 DUP2 MSTORE PUSH1 0x20 ADD DUP4 DUP4 DUP1 DUP3 DUP5 CALLDATACOPY PUSH1 0x0 DUP2 DUP5 ADD MSTORE PUSH1 0x1F NOT PUSH1 0x1F DUP3 ADD AND SWAP1 POP DUP1 DUP4 ADD SWAP3 POP POP POP POP POP POP POP DUP2 MSTORE PUSH1 0x20 ADD NUMBER DUP2 MSTORE POP PUSH1 0x0 DUP3 PUSH1 0x40 MLOAD PUSH2 0x449 SWAP2 SWAP1 PUSH2 0xC0A JUMP JUMPDEST SWAP1 DUP2 MSTORE PUSH1 0x20 ADD PUSH1 0x40 MLOAD DUP1 SWAP2 SUB SWAP1 KECCAK256 PUSH1 0x0 DUP3 ADD MLOAD DUP2 PUSH1 0x0 ADD SWAP1 DUP2 PUSH2 0x46C SWAP2 SWAP1 PUSH2 0xE39 JUMP JUMPDEST POP PUSH1 0x20 DUP3 ADD MLOAD DUP2 PUSH1 0x1 ADD SSTORE PUSH1 0x40 DUP3 ADD MLOAD DUP2 PUSH1 0x2 ADD SWAP1 DUP2 PUSH2 0x48C SWAP2 SWAP1 PUSH2 0xE39 JUMP JUMPDEST POP PUSH1 0x60 DUP3 ADD MLOAD DUP2 PUSH1 0x3 ADD SSTORE SWAP1 POP POP PUSH1 0x1 DUP2 SWAP1 DUP1 PUSH1 0x1 DUP2 SLOAD ADD DUP1 DUP3 SSTORE DUP1 SWAP2 POP POP PUSH1 0x1 SWAP1 SUB SWAP1 PUSH1 0x0 MSTORE PUSH1 0x20 PUSH1 0x0 KECCAK256 ADD PUSH1 0x0 SWAP1 SWAP2 SWAP1 SWAP2 SWAP1 SWAP2 POP SWAP1 DUP2 PUSH2 0x4CE SWAP2 SWAP1 PUSH2 0xE39 JUMP JUMPDEST POP DUP4 DUP7 DUP7 PUSH1 0x40 MLOAD PUSH2 0x4E0 SWAP3 SWAP2 SWAP1 PUSH2 0xF0B JUMP JUMPDEST PUSH1 0x40 MLOAD DUP1 SWAP2 SUB SWAP1 KECCAK256 PUSH32 0x8CBF932D037650DFD35C735D1A5EC26FB0BC242CF8496C039A2BCA8AB83CF4B1 DUP6 DUP6 NUMBER PUSH1 0x40 MLOAD PUSH2 0x51B SWAP4 SWAP3 SWAP2 SWAP1 PUSH2 0xF51 JUMP JUMPDEST PUSH1 0x40 MLOAD DUP1 SWAP2 SUB SWAP1 LOG3 POP POP POP POP POP POP JUMP JUMPDEST PUSH1 0x60 PUSH1 0x0 DUP3 SUB PUSH2 0x572 JUMPI PUSH1 0x40 MLOAD DUP1 PUSH1 0x40 ADD PUSH1 0x40 MSTORE DUP1 PUSH1 0x1 DUP2 MSTORE PUSH1 0x20 ADD PUSH32 0x3000000000000000000000000000000000000000000000000000000000000000 DUP2 MSTORE POP SWAP1 POP PUSH2 0x6AE JUMP JUMPDEST PUSH1 0x0 DUP3 SWAP1 POP PUSH1 0x0 JUMPDEST PUSH1 0x0 DUP3 EQ PUSH2 0x5A4 JUMPI DUP1 DUP1 PUSH2 0x58D SWAP1 PUSH2 0xFB2 JUMP JUMPDEST SWAP2 POP POP PUSH1 0xA DUP3 PUSH2 0x59D SWAP2 SWAP1 PUSH2 0x1029 JUMP JUMPDEST SWAP2 POP PUSH2 0x57A JUMP JUMPDEST PUSH1 0x0 DUP2 PUSH8 0xFFFFFFFFFFFFFFFF DUP2 GT ISZERO PUSH2 0x5C0 JUMPI PUSH2 0x5BF PUSH2 0x6E2 JUMP JUMPDEST JUMPDEST PUSH1 0x40 MLOAD SWAP1 DUP1 DUP3 MSTORE DUP1 PUSH1 0x1F ADD PUSH1 0x1F NOT AND PUSH1 0x20 ADD DUP3 ADD PUSH1 0x40 MSTORE DUP1 ISZERO PUSH2 0x5F2 JUMPI DUP2 PUSH1 0x20 ADD PUSH1 0x1 DUP3 MUL DUP1 CALLDATASIZE DUP4 CALLDATACOPY DUP1 DUP3 ADD SWAP2 POP POP SWAP1 POP JUMPDEST POP SWAP1 POP PUSH1 0x0 DUP3 SWAP1 POP JUMPDEST PUSH1 0x0 DUP7 EQ PUSH2 0x6A6 JUMPI PUSH1 0x1 DUP2 PUSH2 0x610 SWAP2 SWAP1 PUSH2 0x105A JUMP JUMPDEST SWAP1 POP PUSH1 0x0 PUSH1 0xA DUP1 DUP9 PUSH2 0x622 SWAP2 SWAP1 PUSH2 0x1029 JUMP JUMPDEST PUSH2 0x62C SWAP2 SWAP1 PUSH2 0x108E JUMP JUMPDEST DUP8 PUSH2 0x637 SWAP2 SWAP1 PUSH2 0x105A JUMP JUMPDEST PUSH1 0x30 PUSH2 0x643 SWAP2 SWAP1 PUSH2 0x10DD JUMP JUMPDEST SWAP1 POP PUSH1 0x0 DUP2 PUSH1 0xF8 SHL SWAP1 POP DUP1 DUP5 DUP5 DUP2 MLOAD DUP2 LT PUSH2 0x661 JUMPI PUSH2 0x660 PUSH2 0x1112 JUMP JUMPDEST JUMPDEST PUSH1 0x20 ADD ADD SWAP1 PUSH31 0xFFFFFFFFFFFFFFFFFFFFFFFFFFFFFFFFFFFFFFFFFFFFFFFFFFFFFFFFFFFFFF NOT AND SWAP1 DUP2 PUSH1 0x0 BYTE SWAP1 MSTORE8 POP PUSH1 0xA DUP9 PUSH2 0x69D SWAP2 SWAP1 PUSH2 0x1029 JUMP JUMPDEST SWAP8 POP POP POP PUSH2 0x5FB JUMP JUMPDEST DUP2 SWAP5 POP POP POP POP POP JUMPDEST SWAP2 SWAP1 POP JUMP JUMPDEST PUSH1 0x0 PUSH1 0x40 MLOAD SWAP1 POP SWAP1 JUMP JUMPDEST PUSH1 0x0 DUP1 REVERT JUMPDEST PUSH1 0x0 DUP1 REVERT JUMPDEST PUSH1 0x0 DUP1 REVERT JUMPDEST PUSH1 0x0 DUP1 REVERT JUMPDEST PUSH1 0x0 PUSH1 0x1F NOT PUSH1 0x1F DUP4 ADD AND SWAP1 POP SWAP2 SWAP1 POP JUMP JUMPDEST PUSH32 0x4E487B7100000000000000000000000000000000000000000000000000000000 PUSH1 0x0 MSTORE PUSH1 0x41 PUSH1 0x4 MSTORE PUSH1 0x24 PUSH1 0x0 REVERT JUMPDEST PUSH2 0x71A DUP3 PUSH2 0x6D1 JUMP JUMPDEST DUP2 ADD DUP2 DUP2 LT PUSH8 0xFFFFFFFFFFFFFFFF DUP3 GT OR ISZERO PUSH2 0x739 JUMPI PUSH2 0x738 PUSH2 0x6E2 JUMP JUMPDEST JUMPDEST DUP1 PUSH1 0x40 MSTORE POP POP POP JUMP JUMPDEST PUSH1 0x0 PUSH2 0x74C PUSH2 0x6B3 JUMP JUMPDEST SWAP1 POP PUSH2 0x758 DUP3 DUP3 PUSH2 0x711 JUMP JUMPDEST SWAP2 SWAP1 POP JUMP JUMPDEST PUSH1 0x0 PUSH8 0xFFFFFFFFFFFFFFFF DUP3 GT ISZERO PUSH2 0x778 JUMPI PUSH2 0x777 PUSH2 0x6E2 JUMP JUMPDEST JUMPDEST PUSH2 0x781 DUP3 PUSH2 0x6D1 JUMP JUMPDEST SWAP1 POP PUSH1 0x20 DUP2 ADD SWAP1 POP SWAP2 SWAP1 POP JUMP JUMPDEST DUP3 DUP2 DUP4 CALLDATACOPY PUSH1 0x0 DUP4 DUP4 ADD MSTORE POP POP POP JUMP JUMPDEST PUSH1 0x0 PUSH2 0x7B0 PUSH2 0x7AB DUP5 PUSH2 0x75D JUMP JUMPDEST PUSH2 0x742 JUMP JUMPDEST SWAP1 POP DUP3 DUP2 MSTORE PUSH1 0x20 DUP2 ADD DUP5 DUP5 DUP5 ADD GT ISZERO PUSH2 0x7CC JUMPI PUSH2 0x7CB PUSH2 0x6CC JUMP JUMPDEST JUMPDEST PUSH2 0x7D7 DUP5 DUP3 DUP6 PUSH2 0x78E JUMP JUMPDEST POP SWAP4 SWAP3 POP POP POP JUMP JUMPDEST PUSH1 0x0 DUP3 PUSH1 0x1F DUP4 ADD SLT PUSH2 0x7F4 JUMPI PUSH2 0x7F3 PUSH2 0x6C7 JUMP JUMPDEST JUMPDEST DUP2 CALLDATALOAD PUSH2 0x804 DUP5 DUP3 PUSH1 0x20 DUP7 ADD PUSH2 0x79D JUMP JUMPDEST SWAP2 POP POP SWAP3 SWAP2 POP POP JUMP JUMPDEST PUSH1 0x0 PUSH1 0x20 DUP3 DUP5 SUB SLT ISZERO PUSH2 0x823 JUMPI PUSH2 0x822 PUSH2 0x6BD JUMP JUMPDEST JUMPDEST PUSH1 0x0 DUP3 ADD CALLDATALOAD PUSH8 0xFFFFFFFFFFFFFFFF DUP2 GT ISZERO PUSH2 0x841 JUMPI PUSH2 0x840 PUSH2 0x6C2 JUMP JUMPDEST JUMPDEST PUSH2 0x84D DUP5 DUP3 DUP6 ADD PUSH2 0x7DF JUMP JUMPDEST SWAP2 POP POP SWAP3 SWAP2 POP POP JUMP JUMPDEST PUSH1 0x0 DUP2 MLOAD SWAP1 POP SWAP2 SWAP1 POP JUMP JUMPDEST PUSH1 0x0 DUP3 DUP3 MSTORE PUSH1 0x20 DUP3 ADD SWAP1 POP SWAP3 SWAP2 POP POP JUMP JUMPDEST PUSH1 0x0 JUMPDEST DUP4 DUP2 LT ISZERO PUSH2 0x890 JUMPI DUP1 DUP3 ADD MLOAD DUP2 DUP5 ADD MSTORE PUSH1 0x20 DUP2 ADD SWAP1 POP PUSH2 0x875 JUMP JUMPDEST PUSH1 0x0 DUP5 DUP5 ADD MSTORE POP POP POP POP JUMP JUMPDEST PUSH1 0x0 PUSH2 0x8A7 DUP3 PUSH2 0x856 JUMP JUMPDEST PUSH2 0x8B1 DUP2 DUP6 PUSH2 0x861 JUMP JUMPDEST SWAP4 POP PUSH2 0x8C1 DUP2 DUP6 PUSH1 0x20 DUP7 ADD PUSH2 0x872 JUMP JUMPDEST PUSH2 0x8CA DUP2 PUSH2 0x6D1 JUMP JUMPDEST DUP5 ADD SWAP2 POP POP SWAP3 SWAP2 POP POP JUMP JUMPDEST PUSH1 0x0 DUP2 SWAP1 POP SWAP2 SWAP1 POP JUMP JUMPDEST PUSH2 0x8E8 DUP2 PUSH2 0x8D5 JUMP JUMPDEST DUP3 MSTORE POP POP JUMP JUMPDEST PUSH1 0x0 PUSH1 0x80 DUP3 ADD SWAP1 POP DUP2 DUP2 SUB PUSH1 0x0 DUP4 ADD MSTORE PUSH2 0x908 DUP2 DUP8 PUSH2 0x89C JUMP JUMPDEST SWAP1 POP PUSH2 0x917 PUSH1 0x20 DUP4 ADD DUP7 PUSH2 0x8DF JUMP JUMPDEST DUP2 DUP2 SUB PUSH1 0x40 DUP4 ADD MSTORE PUSH2 0x929 DUP2 DUP6 PUSH2 0x89C JUMP JUMPDEST SWAP1 POP PUSH2 0x938 PUSH1 0x60 DUP4 ADD DUP5 PUSH2 0x8DF JUMP JUMPDEST SWAP6 SWAP5 POP POP POP POP POP JUMP JUMPDEST PUSH2 0x94A DUP2 PUSH2 0x8D5 JUMP JUMPDEST DUP2 EQ PUSH2 0x955 JUMPI PUSH1 0x0 DUP1 REVERT JUMPDEST POP JUMP JUMPDEST PUSH1 0x0 DUP2 CALLDATALOAD SWAP1 POP PUSH2 0x967 DUP2 PUSH2 0x941 JUMP JUMPDEST SWAP3 SWAP2 POP POP JUMP JUMPDEST PUSH1 0x0 PUSH1 0x20 DUP3 DUP5 SUB SLT ISZERO PUSH2 0x983 JUMPI PUSH2 0x982 PUSH2 0x6BD JUMP JUMPDEST JUMPDEST PUSH1 0x0 PUSH2 0x991 DUP5 DUP3 DUP6 ADD PUSH2 0x958 JUMP JUMPDEST SWAP2 POP POP SWAP3 SWAP2 POP POP JUMP JUMPDEST PUSH1 0x0 PUSH1 0x20 DUP3 ADD SWAP1 POP DUP2 DUP2 SUB PUSH1 0x0 DUP4 ADD MSTORE PUSH2 0x9B4 DUP2 DUP5 PUSH2 0x89C JUMP JUMPDEST SWAP1 POP SWAP3 SWAP2 POP POP JUMP JUMPDEST PUSH1 0x0 PUSH1 0x20 DUP3 ADD SWAP1 POP PUSH2 0x9D1 PUSH1 0x0 DUP4 ADD DUP5 PUSH2 0x8DF JUMP JUMPDEST SWAP3 SWAP2 POP POP JUMP JUMPDEST PUSH1 0x0 DUP1 REVERT JUMPDEST PUSH1 0x0 DUP1 REVERT JUMPDEST PUSH1 0x0 DUP1 DUP4 PUSH1 0x1F DUP5 ADD SLT PUSH2 0x9F7 JUMPI PUSH2 0x9F6 PUSH2 0x6C7 JUMP JUMPDEST JUMPDEST DUP3 CALLDATALOAD SWAP1 POP PUSH8 0xFFFFFFFFFFFFFFFF DUP2 GT ISZERO PUSH2 0xA14 JUMPI PUSH2 0xA13 PUSH2 0x9D7 JUMP JUMPDEST JUMPDEST PUSH1 0x20 DUP4 ADD SWAP2 POP DUP4 PUSH1 0x1 DUP3 MUL DUP4 ADD GT ISZERO PUSH2 0xA30 JUMPI PUSH2 0xA2F PUSH2 0x9DC JUMP JUMPDEST JUMPDEST SWAP3 POP SWAP3 SWAP1 POP JUMP JUMPDEST PUSH1 0x0 DUP1 PUSH1 0x0 DUP1 PUSH1 0x0 PUSH1 0x60 DUP7 DUP9 SUB SLT ISZERO PUSH2 0xA53 JUMPI PUSH2 0xA52 PUSH2 0x6BD JUMP JUMPDEST JUMPDEST PUSH1 0x0 DUP7 ADD CALLDATALOAD PUSH8 0xFFFFFFFFFFFFFFFF DUP2 GT ISZERO PUSH2 0xA71 JUMPI PUSH2 0xA70 PUSH2 0x6C2 JUMP JUMPDEST JUMPDEST PUSH2 0xA7D DUP9 DUP3 DUP10 ADD PUSH2 0x9E1 JUMP JUMPDEST SWAP6 POP SWAP6 POP POP PUSH1 0x20 PUSH2 0xA90 DUP9 DUP3 DUP10 ADD PUSH2 0x958 JUMP JUMPDEST SWAP4 POP POP PUSH1 0x40 DUP7 ADD CALLDATALOAD PUSH8 0xFFFFFFFFFFFFFFFF DUP2 GT ISZERO PUSH2 0xAB1 JUMPI PUSH2 0xAB0 PUSH2 0x6C2 JUMP JUMPDEST JUMPDEST PUSH2 0xABD DUP9 DUP3 DUP10 ADD PUSH2 0x9E1 JUMP JUMPDEST SWAP3 POP SWAP3 POP POP SWAP3 SWAP6 POP SWAP3 SWAP6 SWAP1 SWAP4 POP JUMP JUMPDEST PUSH32 0x4E487B7100000000000000000000000000000000000000000000000000000000 PUSH1 0x0 MSTORE PUSH1 0x22 PUSH1 0x4 MSTORE PUSH1 0x24 PUSH1 0x0 REVERT JUMPDEST PUSH1 0x0 PUSH1 0x2 DUP3 DIV SWAP1 POP PUSH1 0x1 DUP3 AND DUP1 PUSH2 0xB13 JUMPI PUSH1 0x7F DUP3 AND SWAP2 POP JUMPDEST PUSH1 0x20 DUP3 LT DUP2 SUB PUSH2 0xB26 JUMPI PUSH2 0xB25 PUSH2 0xACC JUMP JUMPDEST JUMPDEST POP SWAP2 SWAP1 POP JUMP JUMPDEST PUSH1 0x0 DUP2 SWAP1 POP SWAP3 SWAP2 POP POP JUMP JUMPDEST PUSH1 0x0 PUSH2 0xB43 DUP4 DUP6 PUSH2 0xB2C JUMP JUMPDEST SWAP4 POP PUSH2 0xB50 DUP4 DUP6 DUP5 PUSH2 0x78E JUMP JUMPDEST DUP3 DUP5 ADD SWAP1 POP SWAP4 SWAP3 POP POP POP JUMP JUMPDEST PUSH32 0x5F00000000000000000000000000000000000000000000000000000000000000 PUSH1 0x0 DUP3 ADD MSTORE POP JUMP JUMPDEST PUSH1 0x0 PUSH2 0xB92 PUSH1 0x1 DUP4 PUSH2 0xB2C JUMP JUMPDEST SWAP2 POP PUSH2 0xB9D DUP3 PUSH2 0xB5C JUMP JUMPDEST PUSH1 0x1 DUP3 ADD SWAP1 POP SWAP2 SWAP1 POP JUMP JUMPDEST PUSH1 0x0 PUSH2 0xBB3 DUP3 PUSH2 0x856 JUMP JUMPDEST PUSH2 0xBBD DUP2 DUP6 PUSH2 0xB2C JUMP JUMPDEST SWAP4 POP PUSH2 0xBCD DUP2 DUP6 PUSH1 0x20 DUP7 ADD PUSH2 0x872 JUMP JUMPDEST DUP1 DUP5 ADD SWAP2 POP POP SWAP3 SWAP2 POP POP JUMP JUMPDEST PUSH1 0x0 PUSH2 0xBE6 DUP3 DUP6 DUP8 PUSH2 0xB37 JUMP JUMPDEST SWAP2 POP PUSH2 0xBF1 DUP3 PUSH2 0xB85 JUMP JUMPDEST SWAP2 POP PUSH2 0xBFD DUP3 DUP5 PUSH2 0xBA8 JUMP JUMPDEST SWAP2 POP DUP2 SWAP1 POP SWAP5 SWAP4 POP POP POP POP JUMP JUMPDEST PUSH1 0x0 PUSH2 0xC16 DUP3 DUP5 PUSH2 0xBA8 JUMP JUMPDEST SWAP2 POP DUP2 SWAP1 POP SWAP3 SWAP2 POP POP JUMP JUMPDEST PUSH32 0x5265636F726420616C726561647920616E63686F726564000000000000000000 PUSH1 0x0 DUP3 ADD MSTORE POP JUMP JUMPDEST PUSH1 0x0 PUSH2 0xC57 PUSH1 0x17 DUP4 PUSH2 0x861 JUMP JUMPDEST SWAP2 POP PUSH2 0xC62 DUP3 PUSH2 0xC21 JUMP JUMPDEST PUSH1 0x20 DUP3 ADD SWAP1 POP SWAP2 SWAP1 POP JUMP JUMPDEST PUSH1 0x0 PUSH1 0x20 DUP3 ADD SWAP1 POP DUP2 DUP2 SUB PUSH1 0x0 DUP4 ADD MSTORE PUSH2 0xC86 DUP2 PUSH2 0xC4A JUMP JUMPDEST SWAP1 POP SWAP2 SWAP1 POP JUMP JUMPDEST PUSH1 0x0 DUP2 SWAP1 POP DUP2 PUSH1 0x0 MSTORE PUSH1 0x20 PUSH1 0x0 KECCAK256 SWAP1 POP SWAP2 SWAP1 POP JUMP JUMPDEST PUSH1 0x0 PUSH1 0x20 PUSH1 0x1F DUP4 ADD DIV SWAP1 POP SWAP2 SWAP1 POP JUMP JUMPDEST PUSH1 0x0 DUP3 DUP3 SHL SWAP1 POP SWAP3 SWAP2 POP POP JUMP JUMPDEST PUSH1 0x0 PUSH1 0x8 DUP4 MUL PUSH2 0xCEF PUSH32 0xFFFFFFFFFFFFFFFFFFFFFFFFFFFFFFFFFFFFFFFFFFFFFFFFFFFFFFFFFFFFFFFF DUP3 PUSH2 0xCB2 JUMP JUMPDEST PUSH2 0xCF9 DUP7 DUP4 PUSH2 0xCB2 JUMP JUMPDEST SWAP6 POP DUP1 NOT DUP5 AND SWAP4 POP DUP1 DUP7 AND DUP5 OR SWAP3 POP POP POP SWAP4 SWAP3 POP POP POP JUMP JUMPDEST PUSH1 0x0 DUP2 SWAP1 POP SWAP2 SWAP1 POP JUMP JUMPDEST PUSH1 0x0 PUSH2 0xD36 PUSH2 0xD31 PUSH2 0xD2C DUP5 PUSH2 0x8D5 JUMP JUMPDEST PUSH2 0xD11 JUMP JUMPDEST PUSH2 0x8D5 JUMP JUMPDEST SWAP1 POP SWAP2 SWAP1 POP JUMP JUMPDEST PUSH1 0x0 DUP2 SWAP1 POP SWAP2 SWAP1 POP JUMP JUMPDEST PUSH2 0xD50 DUP4 PUSH2 0xD1B JUMP JUMPDEST PUSH2 0xD64 PUSH2 0xD5C DUP3 PUSH2 0xD3D JUMP JUMPDEST DUP5 DUP5 SLOAD PUSH2 0xCBF JUMP JUMPDEST DUP3 SSTORE POP POP POP POP JUMP JUMPDEST PUSH1 0x0 SWAP1 JUMP JUMPDEST PUSH2 0xD79 PUSH2 0xD6C JUMP JUMPDEST PUSH2 0xD84 DUP2 DUP5 DUP5 PUSH2 0xD47 JUMP JUMPDEST POP POP POP JUMP JUMPDEST JUMPDEST DUP2 DUP2 LT ISZERO PUSH2 0xDA8 JUMPI PUSH2 0xD9D PUSH1 0x0 DUP3 PUSH2 0xD71 JUMP JUMPDEST PUSH1 0x1 DUP2 ADD SWAP1 POP PUSH2 0xD8A JUMP JUMPDEST POP POP JUMP JUMPDEST PUSH1 0x1F DUP3 GT ISZERO PUSH2 0xDED JUMPI PUSH2 0xDBE DUP2 PUSH2 0xC8D JUMP JUMPDEST PUSH2 0xDC7 DUP5 PUSH2 0xCA2 JUMP JUMPDEST DUP2 ADD PUSH1 0x20 DUP6 LT ISZERO PUSH2 0xDD6 JUMPI DUP2 SWAP1 POP JUMPDEST PUSH2 0xDEA PUSH2 0xDE2 DUP6 PUSH2 0xCA2 JUMP JUMPDEST DUP4 ADD DUP3 PUSH2 0xD89 JUMP JUMPDEST POP POP JUMPDEST POP POP POP JUMP JUMPDEST PUSH1 0x0 DUP3 DUP3 SHR SWAP1 POP SWAP3 SWAP2 POP POP JUMP JUMPDEST PUSH1 0x0 PUSH2 0xE10 PUSH1 0x0 NOT DUP5 PUSH1 0x8 MUL PUSH2 0xDF2 JUMP JUMPDEST NOT DUP1 DUP4 AND SWAP2 POP POP SWAP3 SWAP2 POP POP JUMP JUMPDEST PUSH1 0x0 PUSH2 0xE29 DUP4 DUP4 PUSH2 0xDFF JUMP JUMPDEST SWAP2 POP DUP3 PUSH1 0x2 MUL DUP3 OR SWAP1 POP SWAP3 SWAP2 POP POP JUMP JUMPDEST PUSH2 0xE42 DUP3 PUSH2 0x856 JUMP JUMPDEST PUSH8 0xFFFFFFFFFFFFFFFF DUP2 GT ISZERO PUSH2 0xE5B JUMPI PUSH2 0xE5A PUSH2 0x6E2 JUMP JUMPDEST JUMPDEST PUSH2 0xE65 DUP3 SLOAD PUSH2 0xAFB JUMP JUMPDEST PUSH2 0xE70 DUP3 DUP3 DUP6 PUSH2 0xDAC JUMP JUMPDEST PUSH1 0x0 PUSH1 0x20 SWAP1 POP PUSH1 0x1F DUP4 GT PUSH1 0x1 DUP2 EQ PUSH2 0xEA3 JUMPI PUSH1 0x0 DUP5 ISZERO PUSH2 0xE91 JUMPI DUP3 DUP8 ADD MLOAD SWAP1 POP JUMPDEST PUSH2 0xE9B DUP6 DUP3 PUSH2 0xE1D JUMP JUMPDEST DUP7 SSTORE POP PUSH2 0xF03 JUMP JUMPDEST PUSH1 0x1F NOT DUP5 AND PUSH2 0xEB1 DUP7 PUSH2 0xC8D JUMP JUMPDEST PUSH1 0x0 JUMPDEST DUP3 DUP2 LT ISZERO PUSH2 0xED9 JUMPI DUP5 DUP10 ADD MLOAD DUP3 SSTORE PUSH1 0x1 DUP3 ADD SWAP2 POP PUSH1 0x20 DUP6 ADD SWAP5 POP PUSH1 0x20 DUP2 ADD SWAP1 POP PUSH2 0xEB4 JUMP JUMPDEST DUP7 DUP4 LT ISZERO PUSH2 0xEF6 JUMPI DUP5 DUP10 ADD MLOAD PUSH2 0xEF2 PUSH1 0x1F DUP10 AND DUP3 PUSH2 0xDFF JUMP JUMPDEST DUP4 SSTORE POP JUMPDEST PUSH1 0x1 PUSH1 0x2 DUP9 MUL ADD DUP9 SSTORE POP POP POP JUMPDEST POP POP POP POP POP POP JUMP JUMPDEST PUSH1 0x0 PUSH2 0xF18 DUP3 DUP5 DUP7 PUSH2 0xB37 JUMP JUMPDEST SWAP2 POP DUP2 SWAP1 POP SWAP4 SWAP3 POP POP POP JUMP JUMPDEST PUSH1 0x0 PUSH2 0xF30 DUP4 DUP6 PUSH2 0x861 JUMP JUMPDEST SWAP4 POP PUSH2 0xF3D DUP4 DUP6 DUP5 PUSH2 0x78E JUMP JUMPDEST PUSH2 0xF46 DUP4 PUSH2 0x6D1 JUMP JUMPDEST DUP5 ADD SWAP1 POP SWAP4 SWAP3 POP POP POP JUMP JUMPDEST PUSH1 0x0 PUSH1 0x40 DUP3 ADD SWAP1 POP DUP2 DUP2 SUB PUSH1 0x0 DUP4 ADD MSTORE PUSH2 0xF6C DUP2 DUP6 DUP8 PUSH2 0xF24 JUMP JUMPDEST SWAP1 POP PUSH2 0xF7B PUSH1 0x20 DUP4 ADD DUP5 PUSH2 0x8DF JUMP JUMPDEST SWAP5 SWAP4 POP POP POP POP JUMP JUMPDEST PUSH32 0x4E487B7100000000000000000000000000000000000000000000000000000000 PUSH1 0x0 MSTORE PUSH1 0x11 PUSH1 0x4 MSTORE PUSH1 0x24 PUSH1 0x0 REVERT JUMPDEST PUSH1 0x0 PUSH2 0xFBD DUP3 PUSH2 0x8D5 JUMP JUMPDEST SWAP2 POP PUSH32 0xFFFFFFFFFFFFFFFFFFFFFFFFFFFFFFFFFFFFFFFFFFFFFFFFFFFFFFFFFFFFFFFF DUP3 SUB PUSH2 0xFEF JUMPI PUSH2 0xFEE PUSH2 0xF83 JUMP JUMPDEST JUMPDEST PUSH1 0x1 DUP3 ADD SWAP1 POP SWAP2 SWAP1 POP JUMP JUMPDEST PUSH32 0x4E487B7100000000000000000000000000000000000000000000000000000000 PUSH1 0x0 MSTORE PUSH1 0x12 PUSH1 0x4 MSTORE PUSH1 0x24 PUSH1 0x0 REVERT JUMPDEST PUSH1 0x0 PUSH2 0x1034 DUP3 PUSH2 0x8D5 JUMP JUMPDEST SWAP2 POP PUSH2 0x103F DUP4 PUSH2 0x8D5 JUMP JUMPDEST SWAP3 POP DUP3 PUSH2 0x104F JUMPI PUSH2 0x104E PUSH2 0xFFA JUMP JUMPDEST JUMPDEST DUP3 DUP3 DIV SWAP1 POP SWAP3 SWAP2 POP POP JUMP JUMPDEST PUSH1 0x0 PUSH2 0x1065 DUP3 PUSH2 0x8D5 JUMP JUMPDEST SWAP2 POP PUSH2 0x1070 DUP4 PUSH2 0x8D5 JUMP JUMPDEST SWAP3 POP DUP3 DUP3 SUB SWAP1 POP DUP2 DUP2 GT ISZERO PUSH2 0x1088 JUMPI PUSH2 0x1087 PUSH2 0xF83 JUMP JUMPDEST JUMPDEST SWAP3 SWAP2 POP POP JUMP JUMPDEST PUSH1 0x0 PUSH2 0x1099 DUP3 PUSH2 0x8D5 JUMP JUMPDEST SWAP2 POP PUSH2 0x10A4 DUP4 PUSH2 0x8D5 JUMP JUMPDEST SWAP3 POP DUP3 DUP3 MUL PUSH2 0x10B2 DUP2 PUSH2 0x8D5 JUMP JUMPDEST SWAP2 POP DUP3 DUP3 DIV DUP5 EQ DUP4 ISZERO OR PUSH2 0x10C9 JUMPI PUSH2 0x10C8 PUSH2 0xF83 JUMP JUMPDEST JUMPDEST POP SWAP3 SWAP2 POP POP JUMP JUMPDEST PUSH1 0x0 PUSH1 0xFF DUP3 AND SWAP1 POP SWAP2 SWAP1 POP JUMP JUMPDEST PUSH1 0x0 PUSH2 0x10E8 DUP3 PUSH2 0x10D0 JUMP JUMPDEST SWAP2 POP PUSH2 0x10F3 DUP4 PUSH2 0x10D0 JUMP JUMPDEST SWAP3 POP DUP3 DUP3 ADD SWAP1 POP PUSH1 0xFF DUP2 GT ISZERO PUSH2 0x110C JUMPI PUSH2 0x110B PUSH2 0xF83 JUMP JUMPDEST JUMPDEST SWAP3 SWAP2 POP POP JUMP JUMPDEST PUSH32 0x4E487B7100000000000000000000000000000000000000000000000000000000 PUSH1 0x0 MSTORE PUSH1 0x32 PUSH1 0x4 MSTORE PUSH1 0x24 PUSH1 0x0 REVERT INVALID LOG2 PUSH5 0x6970667358 0x22 SLT KECCAK256 0xC6 0xFB 0xC0 PUSH10 0xB7E4052ECE2F3511AFAE LOG3 PUSH15 0xF5C08F18B899B6A91F065061C452B4 0xD3 PUSH5 0x736F6C6343 STOP ADDMOD EQ STOP CALLER "},"methodIdentifiers":{"getRecordCount()":"ca267f28","recordIds(uint256)":"97ddbef9","records(string)":"541e771d","storeRecord(string,uint256,string)":"f7bb1f90"}}}}}