{
  "_format": "hh-sol-artifact-1",
  "contractName": "RecordStorage",
  "sourceName": "contracts/RecordStorage.sol",
  "abi": [
    {
      "anonymous": false,
      "inputs": [
        {
          "indexed": true,
          "internalType": "string",
          "name": "deviceId",
          "type": "string"
        },
        {
          "indexed": true,
          "internalType": "uint256",
          "name": "timestamp",
          "type": "uint256"
        },
        {
          "indexed": false,
          "internalType": "string",
          "name": "entropyHash",
          "type": "string"
        },
        {
          "indexed": false,
          "internalType": "uint256",
          "name": "blockNumber",
          "type": "uint256"
        }
      ],
      "name": "RecordAnchored",
      "type": "event"
    },
    {
      "inputs": [],
      "name": "getRecordCount",
      "outputs": [
        {
          "internalType": "uint256",
          "name": "",
          "type": "uint256"
        }
      ],
      "stateMutability": "view",
      "type": "function"
    },
    {
      "inputs": [
        {
          "internalType": "uint256",
          "name": "",
          "type": "uint256"
        }
      ],
      "name": "recordIds",
      "outputs": [
        {
          "internalType": "string",
          "name": "",
          "type": "string"
        }
      ],
      "stateMutability": "view",
      "type": "function"
    },
    {
      "inputs": [
        {
          "internalType": "string",
          "name": "",
          "type": "string"
        }
      ],
      "name": "records",
      "outputs": [
        {
          "internalType": "string",
          "name": "deviceId",
          "type": "string"
        },
        {
          "internalType": "uint256",
          "name": "timestamp",
          "type": "uint256"
        },
        {
          "internalType": "string",
          "name": "entropyHash",
          "type": "string"
        },
        {
          "internalType": "uint256",
          "name": "blockNumber",
          "type": "uint256"
        }
      ],
      "stateMutability": "view",
      "type": "function"
    },
    {
      "inputs": [
        {
          "internalType": "string",
          "name": "deviceId",
          "type": "string"
        },
        {
          "internalType": "uint256",
          "name": "timestamp",
          "type": "uint256"
        },
        {
          "internalType": "string",
          "name": "entropyHash",
          "type": "string"
        }
      ],
      "name": "storeRecord",
      "outputs": [],
      "stateMutability": "nonpayable",
      "type": "function"
    }
  ],
  "bytecode": "0x608060405234801561001057600080fd5b50611177806100206000396000f3fe608060405234801561001057600080fd5b506004361061004c5760003560e01c8063541e771d1461005157806397ddbef914610084578063ca267f28146100b4578063f7bb1f90146100d2575b600080fd5b61006b6004803603810190610066919061080d565b6100ee565b60405161007b94939291906108ee565b60405180910390f35b61009e6004803603810190610099919061096d565b610244565b6040516100ab919061099a565b60405180910390f35b6100bc6102f0565b6040516100c991906109bc565b60405180910390f35b6100ec60048036038101906100e79190610a37565b6102fd565b005b60008180516020810182018051848252602083016020850120818352809550505050505060009150905080600001805461012790610afb565b80601f016020809104026020016040519081016040528092919081815260200182805461015390610afb565b80156101a05780601f10610175576101008083540402835291602001916101a0565b820191906000526020600020905b81548152906001019060200180831161018357829003601f168201915b5050505050908060010154908060020180546101bb90610afb565b80601f01602080910402602001604051908101604052809291908181526020018280546101e790610afb565b80156102345780601f1061020957610100808354040283529160200191610234565b820191906000526020600020905b81548152906001019060200180831161021757829003601f168201915b5050505050908060030154905084565b6001818154811061025457600080fd5b90600052602060002001600091509050805461026f90610afb565b80601f016020809104026020016040519081016040528092919081815260200182805461029b90610afb565b80156102e85780601f106102bd576101008083540402835291602001916102e8565b820191906000526020600020905b8154815290600101906020018083116102cb57829003601f168201915b505050505081565b6000600180549050905090565b6000858561030a8661052b565b60405160200161031c93929190610bd9565b60405160208183030381529060405290506000808260405161033e9190610c0a565b90815260200160405180910390206001015414610390576040517f08c379a000000000000000000000000000000000000000000000000000000000815260040161038790610c6d565b60405180910390fd5b604051806080016040528087878080601f016020809104026020016040519081016040528093929190818152602001838380828437600081840152601f19601f82011690508083019250505050505050815260200185815260200184848080601f016020809104026020016040519081016040528093929190818152602001838380828437600081840152601f19601f820116905080830192505050505050508152602001438152506000826040516104499190610c0a565b9081526020016040518091039020600082015181600001908161046c9190610e39565b5060208201518160010155604082015181600201908161048c9190610e39565b50606082015181600301559050506001819080600181540180825580915050600190039060005260206000200160009091909190915090816104ce9190610e39565b508386866040516104e0929190610f0b565b60405180910390207f8cbf932d037650dfd35c735d1a5ec26fb0bc242cf8496c039a2bca8ab83cf4b185854360405161051b93929190610f51565b60405180910390a3505050505050565b606060008203610572576040518060400160405280600181526020017f300000000000000000000000000000000000000000000000000000000000000081525090506106ae565b600082905060005b600082146105a457808061058d90610fb2565b915050600a8261059d9190611029565b915061057a565b60008167ffffffffffffffff8111156105c0576105bf6106e2565b5b6040519080825280601f01601f1916602001820160405280156105f25781602001600182028036833780820191505090505b50905060008290505b600086146106a657600181610610919061105a565b90506000600a80886106229190611029565b61062c919061108e565b87610637919061105a565b603061064391906110dd565b905060008160f81b90508084848151811061066157610660611112565b5b60200101907effffffffffffffffffffffffffffffffffffffffffffffffffffffffffffff1916908160001a905350600a8861069d9190611029565b975050506105fb565b819450505050505b919050565b6000604051905090565b600080fd5b600080fd5b600080fd5b600080fd5b6000601f19601f8301169050919050565b7f4e487b7100000000000000000000000000000000000000000000000000000000600052604160045260246000fd5b61071a826106d1565b810181811067ffffffffffffffff82111715610739576107386106e2565b5b80604052505050565b600061074c6106b3565b90506107588282610711565b919050565b600067ffffffffffffffff821115610778576107776106e2565b5b610781826106d1565b9050602081019050919050565b82818337600083830152505050565b60006107b06107ab8461075d565b610742565b9050828152602081018484840111156107cc576107cb6106cc565b5b6107d784828561078e565b509392505050565b600082601f8301126107f4576107f36106c7565b5b813561080484826020860161079d565b91505092915050565b600060208284031215610823576108226106bd565b5b600082013567ffffffffffffffff811115610841576108406106c2565b5b61084d848285016107df565b91505092915050565b600081519050919050565b600082825260208201905092915050565b60005b83811015610890578082015181840152602081019050610875565b60008484015250505050565b60006108a782610856565b6108b18185610861565b93506108c1818560208601610872565b6108ca816106d1565b840191505092915050565b6000819050919050565b6108e8816108d5565b82525050565b60006080820190508181036000830152610908818761089c565b905061091760208301866108df565b8181036040830152610929818561089c565b905061093860608301846108df565b95945050505050565b61094a816108d5565b811461095557600080fd5b50565b60008135905061096781610941565b92915050565b600060208284031215610983576109826106bd565b5b600061099184828501610958565b91505092915050565b600060208201905081810360008301526109b4818461089c565b905092915050565b60006020820190506109d160008301846108df565b92915050565b600080fd5b600080fd5b60008083601f8401126109f7576109f66106c7565b5b8235905067ffffffffffffffff811115610a1457610a136109d7565b5b602083019150836001820283011115610a3057610a2f6109dc565b5b9250929050565b600080600080600060608688031215610a5357610a526106bd565b5b600086013567ffffffffffffffff811115610a7157610a706106c2565b5b610a7d888289016109e1565b95509550506020610a9088828901610958565b935050604086013567ffffffffffffffff811115610ab157610ab06106c2565b5b610abd888289016109e1565b92509250509295509295909350565b7f4e487b7100000000000000000000000000000000000000000000000000000000600052602260045260246000fd5b60006002820490506001821680610b1357607f821691505b602082108103610b2657610b25610acc565b5b50919050565b600081905092915050565b6000610b438385610b2c565b9350610b5083858461078e565b82840190509392505050565b7f5f00000000000000000000000000000000000000000000000000000000000000600082015250565b6000610b92600183610b2c565b9150610b9d82610b5c565b600182019050919050565b6000610bb382610856565b610bbd8185610b2c565b9350610bcd818560208601610872565b80840191505092915050565b6000610be6828587610b37565b9150610bf182610b85565b9150610bfd8284610ba8565b9150819050949350505050565b6000610c168284610ba8565b915081905092915050565b7f5265636f726420616c726561647920616e63686f726564000000000000000000600082015250565b6000610c57601783610861565b9150610c6282610c21565b602082019050919050565b60006020820190508181036000830152610c8681610c4a565b9050919050565b60008190508160005260206000209050919050565b60006020601f8301049050919050565b600082821b905092915050565b600060088302610cef7fffffffffffffffffffffffffffffffffffffffffffffffffffffffffffffffff82610cb2565b610cf98683610cb2565b95508019841693508086168417925050509392505050565b6000819050919050565b6000610d36610d31610d2c846108d5565b610d11565b6108d5565b9050919050565b6000819050919050565b610d5083610d1b565b610d64610d5c82610d3d565b848454610cbf565b825550505050565b600090565b610d79610d6c565b610d84818484610d47565b505050565b5b81811015610da857610d9d600082610d71565b600181019050610d8a565b5050565b601f821115610ded57610dbe81610c8d565b610dc784610ca2565b81016020851015610dd6578190505b610dea610de285610ca2565b830182610d89565b50505b505050565b600082821c905092915050565b6000610e1060001984600802610df2565b1980831691505092915050565b6000610e298383610dff565b9150826002028217905092915050565b610e4282610856565b67ffffffffffffffff811115610e5b57610e5a6106e2565b5b610e658254610afb565b610e70828285610dac565b600060209050601f831160018114610ea35760008415610e91578287015190505b610e9b8582610e1d565b865550610f03565b601f198416610eb186610c8d565b60005b82811015610ed957848901518255600182019150602085019450602081019050610eb4565b86831015610ef65784890151610ef2601f891682610dff565b8355505b6001600288020188555050505b505050505050565b6000610f18828486610b37565b91508190509392505050565b6000610f308385610861565b9350610f3d83858461078e565b610f46836106d1565b840190509392505050565b60006040820190508181036000830152610f6c818587610f24565b9050610f7b60208301846108df565b949350505050565b7f4e487b7100000000000000000000000000000000000000000000000000000000600052601160045260246000fd5b6000610fbd826108d5565b91507fffffffffffffffffffffffffffffffffffffffffffffffffffffffffffffffff8203610fef57610fee610f83565b5b600182019050919050565b7f4e487b7100000000000000000000000000000000000000000000000000000000600052601260045260246000fd5b6000611034826108d5565b915061103f836108d5565b92508261104f5761104e610ffa565b5b828204905092915050565b6000611065826108d5565b9150611070836108d5565b925082820390508181111561108857611087610f83565b5b92915050565b6000611099826108d5565b91506110a4836108d5565b92508282026110b2816108d5565b915082820484148315176110c9576110c8610f83565b5b5092915050565b600060ff82169050919050565b60006110e8826110d0565b91506110f3836110d0565b9250828201905060ff81111561110c5761110b610f83565b5b92915050565b7f4e487b7100000000000000000000000000000000000000000000000000000000600052603260045260246000fdfea2646970667358221220c6fbc069b7e4052ece2f3511afaea36ef5c08f18b899b6a91f065061c452b4d364736f6c63430008140033",
  "linkReferences": {},
  "deployedLinkReferences": {}
}